:0400000097EF03F083
:1000080000C015F0F2A45CD0000E391802E1010E10
:1000180038180EE13750010A0BE1F294E20ED76E60
:10002800B40ED66E8186880ED56E386A396A48D085
:10003800000E391802E1010E38180EE13750020A95
:100048000BE1F294E50ED76EA20ED66E8186880E6D
:10005800D56E386A396A34D0000E391802E1010EBB
:1000680038180EE13750030A0BE1F294E30ED76E0D
:10007800AE0ED66E8186880ED56E386A396A20D063
:10008800000E391802E1010E38180EE13750000A47
:100098000BE1F294EC0ED76E780ED66E8186880E40
:1000A800D56E386A396A0CD0F2944B0ED76E560E5C
:1000B800D66E8196800ED56E010E386E000E396EA2
:0600C80015C000F011005C
:0C00CE00240E0D6E0D2EFED70000120057
:1000DA0000018051000A0AE1880ED56EEC0ED76E37
:1000EA00780ED66EF28EF28A376A29D08051010ACA
:1000FA000BE1880ED56EE20ED76EB40ED66EF28E76
:10010A00F28A010E376E1BD08051020A0BE1880E6B
:10011A00D56EE50ED76EA20ED66EF28EF28A020E5A
:10012A00376E0DD08051030A0AE1880ED56EE30EB0
:10013A00D76EAE0ED66EF28EF28A030E376E1200AC
:10014A000B6A0A6A096A00500402F4CF09F0F3CF75
:10015A0008F001500502F4CF0BF0F3CF0AF000507B
:10016A000502F3500926F4500A22E86A0B220150CC
:10017A000402F3500926F4500A22E86A0B2208C046
:10018A0000F009C001F00AC002F00BC003F012002F
:10019A00C26A201C006E0050C116070EC012C08E23
:1001AA007FC000F000360090003600900050C21266
:1001BA00C28088DFC282C2A201D0FDD7C4CF01F0BB
:0E01CA00006AC3500012000E0112C290120013
:1001D8000001806B7EDF270E0B6E0D0E0C6E260E57
:1001E8000D6E0D2EFED70C2EFCD70B2EFAD7000065
:0801F8007FC080F06EDF1200F1
:10020000809880968094809200017F6BC6DF00C04A
:1002100067F001C068F08098809680948082000129
:100220007F6BBBDF00C065F001C066F080988096F0
:100230008084809200017F6BB0DF00C063F001C05A
:1002400064F0809880968084808200017F6BA5DFB7
:1002500000C061F001C062F0809880868094809236
:1002600000017F6B9ADF00C05FF001C060F08098F2
:1002700080868094808200017F6B8FDF00C05DF0FC
:1002800001C05EF0809880868084809200017F6B40
:1002900084DF00C05BF001C05CF0809880868084C1
:1002A000808200017F6B79DF00C059F001C05AF0F5
:1002B000808880968094809200017F6B6EDF00C002
:1002C00057F001C058F080888096809480820001A9
:1002D0007F6B63DF00C055F001C056F080888096C8
:1002E0008084809200017F6B58DF00C053F001C012
:1002F00054F0808880968084808200017F6B4DDF7F
:1003000000C051F001C052F08088808680948092B5
:1003100000017F6B42DF00C04FF001C050F08088C9
:1003200080868094808200017F6B37DF00C04DF0B3
:1003300001C04EF0808880868084809200017F6BAF
:100340002CDF00C04BF001C04CF080888086808498
:10035000808200017F6B21DF00C049F001C04AF0BC
:02036000120089
:0E036200ACB202D00000FCD77DC0ADFF12008F
:1003700000017D51010A11E17EC07FF02DDF1A0ED0
:100380000B6E5E0E0C6E6E0E0D6E0D2EFED70C2ECD
:10039000FCD70B2EFAD7000009D07D51000A06E1E8
:0E03A000D56AD76AD66AF29EF29A819612004A
:1003AE00CB50010F006E016A000E01227DC004F0D9
:1003BE00000E056EC3DE060E026E00C004F001C014
:1003CE0005F0025005E005320432059EFF0FFAD704
:1003DE00040E016E04C000F0015004E000360090DF
:1003EE00FF0FFBD7300E0014036E04C000F005C0E3
:1003FE0001F001320032019E01320032019E00C036
:0C040E00BBFF0F0EBA160350BA1212000A
:10041A00CB50010F006E016A000E01227DC004F06C
:10042A00000E056E8DDE060E026E00C004F001C0DD
:10043A0005F0025005E005320432059EFF0FFAD797
:10044A00040E016E04C000F0015004E00036009072
:10045A00FF0FFBD7300E0014036E04C000F005C076
:10046A0001F001320032019E01320032019E00C0C9
:0C047A00BEFF0F0EBD160350BD12120095
:10048600166A176A186A196A216A226A236A246A2E
:10049600296A2A6A2B6A2C6A00017D6BBBDF000180
:1004A6007D6B82DF83908392839483961A0E0B6E04
:1004B6005E0E0C6E6E0E0D6E0D2EFED70C2EFCD73C
:1004C6000B2EFAD70000010E00017D6F7E6B4DDF0B
:0804D6008190819281941200D3
:0804DE00BE6ABD98BD9A120030
:0804E600BB6ABA98BA9A120031
:1004EE00FF0E456EFF0E466EFF0E476EFF0E486EF8
:1004FE00C26A201C006E0050C116070EC012C08EBC
:04050E00C280120095
:100512000900F5CFE6FF0006FBE10106F9E1120052
:0A0522009494CA840C0EBD1212005E
:10052C0000017C6B79C0E9FF7AC0EAFFEECF7BF06B
:10053C007B51000A0EE07BC07DF00DDF00017C2BAF
:10054C007C517925E96E000E7A21EA6EEECF7BF0B4
:04055C00EFD71200C3
:1005600000017B6B7C6B7B6B7C6B800E7A19006E61
:10057000800E7C19005C02E17B51795DD8A095D09A
:100580008180818281843CDE020E0B6E450E0C6EF2
:10059000A90E0D6E0D2EFED70C2EFCD70B2EFAD702
:1005A0000000000049C025F04AC026F049C027F0ED
:1005B0004AC028F02D6A2E6A800E006E800E2E181A
:1005C000005C02E12D500F085BE32DC000F02EC04F
:1005D00001F0003600900136490E0024E96E000E4D
:1005E0000120EA6EEECF01F0EECF02F0800E261869
:1005F000006E800E0218005C02E10150255C11E2E1
:100600002DC000F02EC001F0003600900136490EDA
:100610000024E96E000E0120EA6EEECF25F0EECF49
:1006200026F02DC000F02EC001F0003600900136FB
:10063000490E0024E96E000E0120EA6EEECF01F0B3
:10064000EECF02F0800E0218006E800E2818005CBB
:1006500002E12750015C11E22DC000F02EC001F034
:10066000003600900136490E0024E96E000E01208C
:10067000EA6EEECF27F0EECF28F02D4A2E2A9CD737
:10068000819081928194020E0B6E450E0C6EA90E24
:100690000D6E0D2EFED70C2EFCD70B2EFAD70000B8
:1006A000000000017B4B7C2B60D7275025241A6E5D
:1006B000285026201B6E1B321A321B9E1BBC1B8E21
:0C06C0001BAE03D002E31A4A1B2A1200F2
:0A06CC009492CA840C0EBA121200B8
:1006D600620E0001756F030E766F7D0E776F000E4A
:1006E600786FFF0E716FFF0E726F000E736F000E44
:1006F600746FFF0E6D6FFF0E6E6F000E6F6F000E44
:10070600706FFF0E696FFF0E6A6F000E6B6F000E43
:100716006C6FAC8A900EAB6E948E949C9EAA03D09E
:08072600AECF00F0FBD712007A
:10072E00DAEC04F0070EB46EDBDE010E926E300EC4
:10073E00936E800E946ED00E956EC2800E0EC16EAC
:10074E00AE0EC06E806A816A826A836ACA90CA924D
:10075E00C70ECB6EBDDECA90CA92C70ECB6EBCDE84
:10076E00D9DEADDF00017D6B51DE00017D6B18DE41
:10077E00060E0B6E130E0C6EAD0E0D6E0D2EFED7FD
:10078E000C2EFCD70B2EFAD700000000B886020EF6
:10079E00B06E080EAF6EAC8497DF030E0B6E8A0E32
:1007AE000C6E550E0D6E0D2EFED70C2EFCD70B2E8D
:1007BE00FAD7000000003E0E796F000E7A6FAFDEA2
:1007CE000A0E7D6FC7DD0D0E00017D6FC3DD0001CA
:1007DE007D6BE6DD00017D6B19DE320E0001796F57
:1007EE00000E7A6FB6DE1A0E0B6E5E0E0C6E6E0E6D
:1007FE000D6E0D2EFED70C2EFCD70B2EFAD7000049
:10080E0083BC22D083BE20D0000E336E000E346E19
:10081E00480E356E850E366E000E2F6E000E306E43
:10082E00000E316E810E326E6F0E3A6E120E3B6EF0
:10083E00030E3C6E750E3D6E000E1C6E000E1D6E90
:10084E00480E1E6E850E1F6E83BC22D083AE20D046
:10085E00000E336E000E346E700E356E850E366ED3
:10086E00000E2F6E000E306E080E316E820E326E3E
:10087E006F0E3A6E120E3B6E030E3C6E760E3D6E92
:10088E00000E1C6E000E1D6E0C0E1E6E860E1F6E62
:10089E0083AC22D083BE20D0000E336E000E346E99
:1008AE003E0E356E860E366E000E2F6E000E306EBC
:1008BE00400E316E810E326E6F0E3A6E120E3B6E20
:1008CE00030E3C6E750E3D6E000E1C6E000E1D6E00
:1008DE005C0E1E6E840E1F6E83AC22D083AE20D0B3
:1008EE00000E336E000E346E570E356E860E366E5B
:1008FE00000E2F6E000E306E200E316E810E326E97
:10090E006F0E3A6E120E3B6E030E3C6E750E3D6E02
:10091E00000E1C6E000E1D6E480E1E6E850E1F6E96
:10092E00ABDD0001C80E7D6F3BDDC80E00017D6F93
:10093E006DDD83828384330E0B6EBB0E0C6EDF0E69
:10094E000D6E0D2EFED70C2EFCD70B2EFAD70000F7
:10095E00000083928394330E0B6EBB0E0C6EDF0E73
:10096E000D6E0D2EFED70C2EFCD70B2EFAD70000D7
:06097E000000D7D7FFD7EF
:1009B40010EE16F02F0E006E010E016E840EF66E10
:0E09C400090EF76E000EF86E89EC02F01200BC
:04098400000000006F
:0209880000006D
:04098A000000000069
:01098E003038
:04098F000000000064
:02099300000062
:02099500000060
:04099700000000005C
:02099B0000005A
:04099D000000000056
:0409A1000000000052
:0109A5000051
:0209A60000004F
:0409A800000000004B
:0709AC0052617969746F00CC
:020000040030CA
:0E00000020CC191EFF8381FF0FC00FE00F40C0
:00000001FF
